:100000000C942A000C9434000C9434000C943400AA
:100010000C9434000C9434000C9434000C94340090
:100020000C9434000C9434000C9434000C94340080
:100030000C9434000C9434000C9434000C94340070
:100040000C9434000C9434000C9434000C94340060
:100050000C94340011241FBECFE5D4E0DEBFCDBF29
:100060000E9436000C9453000C940000DF93CF9351
:10007000CDB7DEB7E7E3F0E01082E8E3F0E010820E
:10008000E4E3F0E08FE78083E5E3F0E01082E1E372
:10009000F0E08FEF8083E2E3F0E01082E2E3F0E053
:0A00A00080E28083FBCFF894FFCFCD
:00000001FF
