:1000000012C021C020C046C01EC01DC01CC01BC0E5
:100010001AC019C018C017C016C015C014C013C02C
:1000200012C011C010C011241FBECFE5D4E0DEBF46
:10003000CDBF20E0A0E6B0E001C01D92A236B2071D
:10004000E1F702D03EC0DCCF80EE81BB85B58F7B6F
:1000500085BD85B5886085BD8DE783BD789489B7FA
:10006000806889BF85B58E7F85BD85B5826085BD79
:1000700085B58B7F85BD8091600090916100843F44
:100080009140C9F7109261001092600082B3809590
:1000900082BBF1CF1F920F920FB60F9211248F9354
:1000A0009F93809160009091610001969093610010
:1000B000809360009F918F910F900FBE0F901F90C3
:0600C0001895F894FFCF33
:00000001FF
