:100000000C942A000C9447000C9447000C94470071
:100010000C9447000C9447000C9447000C94470044
:100020000C9447000C9447000C9447000C94470034
:100030000C9447000C9447000C9447000C94470024
:100040000C9447000C9447000C9447000C94470014
:100050000C94470011241FBECFE5D4E0DEBFCDBF16
:1000600011E0A0E6B0E0EEE2F3E202C005900D92EE
:10007000A633B107D9F711E0A6E3B1E001C01D92A4
:10008000A034B107E1F70E94C30F0C9495110C94B2
:100090000000EF92FF920F931F937B018C0120E0F1
:1000A00030E040E05FE40E94F50388238CF0C80153
:1000B000B70120E030E040E05FE40E94C1010E940F
:1000C00055049B01AC01205030404040504806C0D0
:1000D000C801B7010E9455049B01AC01B901CA01D6
:1000E0001F910F91FF90EF900895A0E0B0E0EBE733
:1000F000F0E00C945E11DC012B01FA019C9192302E
:1001000008F439C1EB018881823008F433C194309E
:1001100069F4843009F02FC111969C91119789815F
:10012000981709F428C1A7E1B1E025C1843009F48A
:1001300021C18230A9F4923009F01DC19A01AD01AC
:1001400088E0EA010990AE01E90109929E0181501F
:10015000C1F7E201898111969C918923818308C1AD
:10016000923009F407C112962D903C901397EB0141
:100170008A819B811496AD90BD90CD90DC901797AD
:10018000EC80FD800E811F819101281B390BB90184
:1001900037FF04C066277727621B730B6032710537
:1001A0000CF061C0121613066CF537014801062EDB
:1001B00004C096948794779467940A94D2F721E0C8
:1001C00030E040E050E004C0220F331F441F551FB1
:1001D0006A95D2F721503040404050402E213F21B7
:1001E00040235123211531054105510521F021E01E
:1001F00030E040E050E079018A01E628F72808293C
:1002000019293CC0232BD1F1260E371E350146019A
:10021000062E04C096948794779467940A94D2F734
:1002200021E030E040E050E004C0220F331F441FC3
:10023000551F6A95D2F721503040404050402A2146
:100240003B214C215D21211531054105510521F04E
:1002500021E030E040E050E059016A01A628B728CB
:10026000C828D9280BC0821593052CF01C01AA249C
:10027000BB24650103C0EE24FF24870111969C91E5
:10028000D20111968C91981709F445C0992339F041
:10029000A80197012A193B094C095D0906C0A6016E
:1002A00095012E193F09400B510B57FD08C01182D3
:1002B0003382228224833583468357831DC081E0A5
:1002C00081833382228288279927DC01821B930B4A
:1002D000A40BB50B84839583A683B7830DC0220F2F
:1002E000331F441F551F24833583468357838281E0
:1002F000938101979383828324813581468157813D
:10030000DA01C9010197A109B1098F5F9F4FAF4F72
:10031000BF4328F30BC0918333822282EA0CFB1C7B
:100320000C1D1D1DE482F5820683178383E0808304
:10033000248135814681578157FF1AC0C901AA27F8
:1003400097FDA095BA2F81709070A070B0705695EF
:10035000479537952795822B932BA42BB52B848318
:100360009583A683B7838281938101969383828349
:10037000DF0101C0D201CD01CDB7DEB7E2E10C94BF
:100380007A11A0E2B0E0E7ECF1E00C946A11698325
:100390007A838B839C832D833E834F835887E9E048
:1003A000EE2EF12CEC0EFD1ECE010196B7010E943F
:1003B0007E058E010F5E1F4FCE010596B8010E948B
:1003C0007E058A8991E089278A8BC701B801AE0131
:1003D000475E5F4F0E9475000E94A904A096E6E068
:1003E0000C948611A0E2B0E0E8EFF1E00C946A1101
:1003F00069837A838B839C832D833E834F835887C5
:10040000F9E0EF2EF12CEC0EFD1ECE010196B701A6
:100410000E947E058E010F5E1F4FCE010596B8012A
:100420000E947E05C701B801AE01475E5F4F0E9482
:1004300075000E94A904A096E6E00C948611A0E243
:10044000B0E0E5E2F2E00C945E1169837A838B837D
:100450009C832D833E834F835887CE010196BE0136
:10046000675F7F4F0E947E05CE010596BE016F5EDD
:100470007F4F0E947E059985923088F0898982306D
:10048000C8F0943019F4823051F404C0843029F457
:10049000923081F487E191E0C6C0923049F420E0C7
:1004A0009A858A89981321E02A87CE010996BBC0D4
:1004B000823049F420E09A858A89981321E02A8BBA
:1004C000CE014196B0C02D843E844F8458886D88FB
:1004D0007E888F88988CEE24FF248701AA24BB2471
:1004E000650140E050E060E070E0E0E0F0E0C10174
:1004F00081709070892BE9F0E60CF71C081D191D1E
:100500009A01AB012A0D3B1D4C1D5D1D80E090E062
:10051000A0E0B0E0E614F7040805190520F481E036
:1005200090E0A0E0B0E0BA01A901480F591F6A1F8E
:100530007B1FAA0CBB1CCC1CDD1C97FE08C081E0F5
:1005400090E0A0E0B0E0A82AB92ACA2ADB2A3196B6
:10055000E032F10549F0660C771C881C991C569412
:10056000479437942794C3CFFA85EA892B893C892D
:100570008B859C85280F391F2E5F3F4F17C0CA01FE
:1005800081709070892B61F016950795F794E79428
:1005900080E090E0A0E0B0E8E82AF92A0A2B1B2BC3
:1005A00076956795579547952F5F3F4F77FDE7CF36
:1005B0000CC0440F551F661F771F17FD4160EE0CDE
:1005C000FF1C001F111F21503040403090E05907A0
:1005D00090E0690790E4790760F32B8F3C8FDB0193
:1005E000CA018F779070A070B07080349105A1051A
:1005F000B10561F447FD0AC0E114F10401051105DC
:1006000029F0405C5F4F6F4F7F4F40781A8EFE1786
:1006100011F081E08A8F4D8F5E8F6F8F78A383E01A
:10062000898FCE0149960E94A904A096E2E10C941C
:100630007A11A8E1B0E0EFE1F3E00C946611698370
:100640007A838B839C832D833E834F835887B9E0C5
:10065000EB2EF12CEC0EFD1ECE010196B7010E948F
:100660007E058E010F5E1F4FCE010596B8010E94D8
:100670007E052985223008F47EC03989323010F495
:10068000B8017CC08A859A8989278A87243011F02D
:10069000223031F4231709F06EC067E171E06EC0BB
:1006A000343039F41D861E861F86188A1C861B86E8
:1006B00004C0323021F484E08987B7015FC02B8504
:1006C0003C858B899C89281B390B3C872B87ED84C3
:1006D000FE840F851889AD88BE88CF88D88CEA142F
:1006E000FB040C051D0540F4EE0CFF1C001F111F40
:1006F000215030403C872B8720E030E040E050E044
:1007000080E090E0A0E0B0E460E070E0EA14FB0478
:100710000C051D0540F0282B392B4A2B5B2BEA18C2
:10072000FB080C091D09B695A79597958795EE0CC2
:10073000FF1C001F111F6F5F7F4F6F31710531F775
:10074000DA01C9018F779070A070B0708034910584
:10075000A105B10561F427FD0AC0E114F10401050A
:10076000110529F0205C3F4F4F4F5F4F20782D87B8
:100770003E874F87588BBE01675F7F4FCB010E943A
:10078000A9046896EAE00C948211A8E1B0E0EBECD1
:10079000F3E00C946A1169837A838B839C832D83A5
:1007A0003E834F83588789E0E82EF12CEC0EFD1E26
:1007B000CE010196B7010E947E058E010F5E1F4F8C
:1007C000CE010596B8010E947E058985823040F0F1
:1007D0008989823028F0C701B8010E94F60501C05E
:1007E0008FEF6896E6E00C948611A8E1B0E0EBEF9D
:1007F000F3E00C946A1169837A838B839C832D8345
:100800003E834F83588789E0E82EF12CEC0EFD1EC5
:10081000CE010196B7010E947E058E010F5E1F4F2B
:10082000CE010596B8010E947E058985823040F090
:100830008989823028F0C701B8010E94F60501C0FD
:100840008FEF6896E6E00C948611A8E1B0E0EBE249
:10085000F4E00C946A1169837A838B839C832D83E3
:100860003E834F83588789E0E82EF12CEC0EFD1E65
:10087000CE010196B7010E947E058E010F5E1F4FCB
:10088000CE010596B8010E947E058985823040F030
:100890008989823028F0C701B8010E94F60501C09D
:1008A00081E06896E6E00C948611ACE0B0E0EBE500
:1008B000F4E00C946E1169837A838B839C83CE0160
:1008C0000196BE016B5F7F4F0E947E058D81823055
:1008D00061F1823050F1843021F48E81882351F10E
:1008E0002EC02F81388537FD20C06E812F31310514
:1008F0001CF06623F9F023C08EE190E0821B930B7D
:1009000029853A854B855C8504C056954795379572
:1009100027958A95D2F76623B1F05095409530958A
:1009200021953F4F4F4F5F4F0EC020E030E040E039
:1009300050E009C02FEF3FEF4FEF5FE704C020E02A
:1009400030E040E050E8B901CA012C96E2E00C9496
:100950008A11DF92EF92FF920F931F93FC01E480C4
:10096000F58006811781D1808081823048F480E053
:1009700090E0A0E1B0E0E82AF92A0A2B1B2BA5C0E1
:10098000843009F49FC0823021F4EE24FF248701D3
:1009900005C0E114F1040105110519F4E0E0F0E0EF
:1009A00096C0628173819FEF623879070CF05BC05B
:1009B00022E83FEF261B370B2A3131052CF020E0CF
:1009C00030E040E050E02AC0B801A701022E04C088
:1009D00076956795579547950A94D2F781E090E010
:1009E000A0E0B0E004C0880F991FAA1FBB1F2A9582
:1009F000D2F70197A109B1098E219F21A023B1232C
:100A00000097A105B10521F081E090E0A0E0B0E001
:100A10009A01AB01282B392B4A2B5B2BDA01C90138
:100A20008F779070A070B07080349105A105B105EA
:100A300039F427FF09C0205C3F4F4F4F5F4F04C080
:100A4000215C3F4F4F4F5F4FE0E0F0E02030A0E0EF
:100A50003A07A0E04A07A0E45A0710F0E1E0F0E00E
:100A600079018A0127C06038710564F5FB01E158FE
:100A7000FF4FD801C7018F779070A070B07080349D
:100A80009105A105B10539F4E7FE0DC080E490E0C1
:100A9000A0E0B0E004C08FE390E0A0E0B0E0E80E9A
:100AA000F91E0A1F1B1F17FF05C016950795F7941F
:100AB000E794319687E016950795F794E7948A9521
:100AC000D1F705C0EE24FF248701EFEFF0E06E2F91
:100AD000679566276795902F9F77D794DD24D794E5
:100AE0008E2F8695492F462B582F5D29B701CA01B5
:100AF0001F910F91FF90EF90DF900895FC01DB01B3
:100B0000408151812281622F6F7770E0221F22275E
:100B1000221F9381892F880F822B282F30E0991F65
:100B20009927991F11969C93119721153105A9F5C5
:100B3000411551056105710511F482E037C082E865
:100B40009FEF13969C938E9312979A01AB0167E0E7
:100B5000220F331F441F551F6A95D1F783E08C93F2
:100B60000DC0220F331F441F551F12968D919C916B
:100B70001397019713969C938E931297203080E0E1
:100B8000380780E0480780E4580758F314962D93FF
:100B90003D934D935C93179708952F3F310579F45A
:100BA000411551056105710519F484E08C93089590
:100BB00064FF03C081E08C9312C01C9210C02F57B9
:100BC000304013963C932E93129783E08C9387E0EA
:100BD000440F551F661F771F8A95D1F770641496CE
:100BE0004D935D936D937C93179708951F93DC014C
:100BF000FB019C91923008F447C08081823008F458
:100C000043C0943051F411961C91843099F5818140
:100C1000682F70E0611B71093FC0843021F0923071
:100C200031F48230B9F18181882389F12DC0119688
:100C30001C9111978230F1F081811817D9F4129626
:100C40002D913C911397828193818217930794F0A1
:100C500028173907BCF014968D919D910D90BC9189
:100C6000A02D2481358146815781281739074A07ED
:100C70005B0718F4112341F00AC082179307A407F9
:100C8000B50740F4112319F061E070E005C06FEF83
:100C90007FEF02C060E070E0CB011F910895DF9309
:100CA000CF93CDB7DEB7A1E3B0E0E1E3F0E0808120
:100CB00081608C93A1E3B0E0E1E3F0E080818260A9
:100CC0008C93A1E3B0E0E1E3F0E0808184608C9359
:100CD000A1E3B0E0E1E3F0E0808188608C93A1E3E0
:100CE000B0E0E1E3F0E080818F7E8C93A1E3B0E09F
:100CF000E1E3F0E080818F7D8C93A1E3B0E0E1E35C
:100D0000F0E080818F7B8C93A1E3B0E0E1E3F0E041
:100D100080818F778C93A2E3B0E0E2E3F0E0808102
:100D200080618C93A2E3B0E0E2E3F0E08081806236
:100D30008C93A2E3B0E0E2E3F0E0808180648C93E6
:100D4000A2E3B0E0E2E3F0E0808180688C93A2E36C
:100D5000B0E0E2E3F0E0808181608C93A2E3B0E058
:100D6000E2E3F0E0808182608C93A2E3B0E0E2E312
:100D7000F0E0808184608C93A2E3B0E0E2E3F0E0F5
:100D8000808188608C93CF91DF910895DF93CF931A
:100D9000CDB7DEB727970FB6F894DEBF0FBECDBF35
:100DA0008FEF8B838FEF8A8319821982C9C0A2E3E8
:100DB000B0E0E2E3F0E0808181608C93A2E3B0E0F8
:100DC000E2E3F0E0808182608C93A2E3B0E0E2E3B2
:100DD000F0E0808184608C93A2E3B0E0E2E3F0E095
:100DE000808188608C938981282F30E03F832E8317
:100DF0008E819F8181309105E9F02E813F812230E3
:100E000031052CF48E819F81009761F02AC02E81DC
:100E10003F8122303105B1F08E819F818330910571
:100E2000C9F01FC0A2E3B0E0E2E3F0E080818E7F72
:100E30008C9317C0A2E3B0E0E2E3F0E080818D7F05
:100E40008C930FC0A2E3B0E0E2E3F0E080818B7FFF
:100E50008C9307C0A2E3B0E0E2E3F0E08081877FFB
:100E60008C93E0E3F0E08081882F90E080719070B7
:100E7000009711F41B821FC0E0E3F0E08081882F0F
:100E800090E080729070009719F481E08B8313C01A
:100E9000E0E3F0E08081882F90E08074907000970C
:100EA00019F482E08B8307C0E0E3F0E080818823BF
:100EB00014F083E08B838B818F3F09F43EC0E0E325
:100EC000F0E08081882F90E0807190700097E1F0D1
:100ED000E0E3F0E08081882F90E0807290700097CE
:100EE00099F0E0E3F0E08081882F90E080749070CA
:100EF000009751F0E0E3F0E0808188232CF421E0BA
:100F000030E03D832C8302C01D821C828C819D8138
:100F10000097A9F28981482F50E08B81282F30E07B
:100F2000CA01880F991F880F991F820F931FFC0118
:100F3000EA5DFE4F80818A8307C089818F5F898344
:100F40008981843008F433CF8A8127960FB6F894CC
:100F5000DEBF0FBECDBFCF91DF910895DF93CF935A
:100F6000CDB7DEB7E0970FB6F894DEBF0FBECDBFAA
:100F7000E7E3F0E08FEF8083A4E3B0E0E4E3F0E0A8
:100F8000808183608C93E8E3F0E01082A5E3B0E019
:100F9000E5E3F0E080818D7F8C9380E090E0AAEF24
:100FA000B4E48DA79EA7AFA7B8AB6DA57EA58FA50E
:100FB00098A92BEA3AEA4AEA5EE30E941F02DC01A2
:100FC000CB0189A79AA7ABA7BCA769A57AA58BA5D2
:100FD0009CA520E030E040E85FE30E9425048823E0
:100FE0001CF481E088A791C069A57AA58BA59CA572
:100FF00020E030E04FE753E40E94C50318160CF0E0
:101000007BC06DA57EA58FA598A920E030E04AE7BA
:1010100054E40E941903DC01CB018CA39DA3AEA371
:10102000BFA36CA17DA18EA19FA120E030E04AE783
:1010300053E40E941F02DC01CB0188A399A3AAA359
:10104000BBA368A179A18AA19BA120E030E040E880
:101050005FE30E94250488232CF481E090E09F8FB9
:101060008E8F3FC068A179A18AA19BA120E03FEFAC
:101070004FE757E40E94C50318164CF56CA17DA1FB
:101080008EA19FA120E030E040E251E40E941F02C7
:10109000DC01CB01BC01CD010E944900DC01CB0188
:1010A0009F8F8E8F0FC089E190E09D8F8C8F8C8DEC
:1010B0009D8D0197F1F79D8F8C8F8E8D9F8D019760
:1010C0009F8F8E8F8E8D9F8D009769F724C068A1AA
:1010D00079A18AA19BA10E944900DC01CB019F8FCD
:1010E0008E8F8E8D9F8D9B8F8A8F8A8D9B8D019782
:1010F000F1F79B8F8A8F0FC069A57AA58BA59CA558
:101100000E944900DC01CB0188A788A5898F898DC1
:101110008A95F1F7898F88E30E945E098EE00E942C
:101120005E0981E00E945E0980E090E0AAEFB4E4ED
:101130008D8B9E8BAF8BB88F6D897E898F89988DB3
:101140002BEA3AEA4AEA5EE30E941F02DC01CB0185
:10115000898B9A8BAB8BBC8B69897A898B899C89AB
:1011600020E030E040E85FE30E94250488231CF47F
:1011700081E0888B91C069897A898B899C8920E07C
:1011800030E04FE753E40E94C50318160CF07BC013
:101190006D897E898F89988D20E030E04AE754E49C
:1011A0000E941903DC01CB018C879D87AE87BF8726
:1011B0006C857D858E859F8520E030E04AE753E48D
:1011C0000E941F02DC01CB0188879987AA87BB8711
:1011D000688579858A859B8520E030E040E85FE37B
:1011E0000E94250488232CF481E090E09F838E8365
:1011F0003FC0688579858A859B8520E03FEF4FE772
:1012000057E40E94C50318164CF56C857D858E85C4
:101210009F8520E030E040E251E40E941F02DC01A3
:10122000CB01BC01CD010E944900DC01CB019F83B1
:101230008E830FC089E190E09D838C838C819D819A
:101240000197F1F79D838C838E819F8101979F8306
:101250008E838E819F81009769F724C06885798588
:101260008A859B850E944900DC01CB019F838E8388
:101270008E819F819B838A838A819B810197F1F76D
:101280009B838A830FC069897A898B899C890E9494
:101290004900DC01CB01888B8889898389818A9503
:1012A000F1F7898386E00E945E09E0960FB6F89414
:1012B000DEBF0FBECDBFCF91DF910895DF93CF93F7
:1012C0000F92CDB7DEB78983E8E3F0E089818083B0
:1012D000A5E3B0E0E5E3F0E080818E7F8C930E948F
:1012E000DE090F90CF91DF910895DF93CF930F9296
:1012F000CDB7DEB78983A5E3B0E0E5E3F0E0808118
:1013000081608C93E8E3F0E089818083A5E3B0E01D
:10131000E5E3F0E0808181608C930E94DE090F900C
:10132000CF91DF910895DF93CF9300D00F92CDB787
:10133000DEB79B838A8319820EC08981282F30E013
:101340008A819B81FC01E20FF31F80810E94750955
:1013500089818F5F89838981282F30E08A819B81F1
:10136000FC01E20FF31F8081882339F70F900F9063
:101370000F90CF91DF910895DF93CF9300D00F921C
:10138000CDB7DEB79A8389836B8389819A81813057
:10139000910529F48B8180580E945E0909C08981DA
:1013A0009A818230910521F48B8180540E945E09DC
:1013B0000F900F900F90CF91DF910895DF93CF930F
:1013C000CDB7DEB7E0970FB6F894DEBF0FBECDBF46
:1013D000A5E3B0E0E5E3F0E0808182608C9380E0FB
:1013E00090E0A0E8BFE38DA79EA7AFA7B8AB6DA51F
:1013F0007EA58FA598A92BEA3AEA4AEA5EE30E9405
:101400001F02DC01CB0189A79AA7ABA7BCA769A5DE
:101410007AA58BA59CA520E030E040E85FE30E9420
:10142000250488231CF481E088A791C069A57AA5CA
:101430008BA59CA520E030E04FE753E40E94C50354
:1014400018160CF07BC06DA57EA58FA598A920E08D
:1014500030E04AE754E40E941903DC01CB018CA37D
:101460009DA3AEA3BFA36CA17DA18EA19FA120E0EF
:1014700030E04AE753E40E941F02DC01CB0188A35D
:1014800099A3AAA3BBA368A179A18AA19BA120E0EB
:1014900030E040E85FE30E94250488232CF481E0DB
:1014A00090E09F8F8E8F3FC068A179A18AA19BA1F8
:1014B00020E03FEF4FE757E40E94C50318164CF5B4
:1014C0006CA17DA18EA19FA120E030E040E251E41B
:1014D0000E941F02DC01CB01BC01CD010E9449002A
:1014E000DC01CB019F8F8E8F0FC089E190E09D8F33
:1014F0008C8F8C8D9D8D0197F1F79D8F8C8F8E8DAC
:101500009F8D01979F8F8E8F8E8D9F8D009769F78E
:1015100024C068A179A18AA19BA10E944900DC0195
:10152000CB019F8F8E8F8E8D9F8D9B8F8A8F8A8D03
:101530009B8D0197F1F79B8F8A8F0FC069A57AA5C4
:101540008BA59CA50E944900DC01CB0188A788A53A
:10155000898F898D8A95F1F7898FA5E3B0E0E5E35E
:10156000F0E080818D7F8C9380E090E0A8ECB2E485
:101570008D8B9E8BAF8BB88F6D897E898F89988D6F
:101580002BEA3AEA4AEA5EE30E941F02DC01CB0141
:10159000898B9A8BAB8BBC8B69897A898B899C8967
:1015A00020E030E040E85FE30E94250488231CF43B
:1015B00081E0888B91C069897A898B899C8920E038
:1015C00030E04FE753E40E94C50318160CF07BC0CF
:1015D0006D897E898F89988D20E030E04AE754E458
:1015E0000E941903DC01CB018C879D87AE87BF87E2
:1015F0006C857D858E859F8520E030E04AE753E449
:101600000E941F02DC01CB0188879987AA87BB87CC
:10161000688579858A859B8520E030E040E85FE336
:101620000E94250488232CF481E090E09F838E8320
:101630003FC0688579858A859B8520E03FEF4FE72D
:1016400057E40E94C50318164CF56C857D858E8580
:101650009F8520E030E040E251E40E941F02DC015F
:10166000CB01BC01CD010E944900DC01CB019F836D
:101670008E830FC089E190E09D838C838C819D8156
:101680000197F1F79D838C838E819F8101979F83C2
:101690008E838E819F81009769F724C06885798544
:1016A0008A859B850E944900DC01CB019F838E8344
:1016B0008E819F819B838A838A819B810197F1F729
:1016C0009B838A830FC069897A898B899C890E9450
:1016D0004900DC01CB01888B8889898389818A95BF
:1016E000F1F78983E0960FB6F894DEBF0FBECDBF49
:1016F000CF91DF910895DF93CF93CDB7DEB70E94EE
:10170000AE070E944F06CF91DF910895DF93CF93EC
:1017100000D000D000D0CDB7DEB78E831D821C82F2
:101720001B821A8284E589833EC08E81813431F523
:101730008C819D81FC01EA5CFE4F20818C819D8122
:10174000FC01E15EFE4F8081281719F086E4898351
:1017500025C08C819D81FC01EA5CFE4F80818A322C
:10176000E9F48A819B8101969B838A838A819B818C
:101770008430910599F483E4898310C08C819D8124
:10178000FC01EA5CFE4F20818C819D81FC01E15EC1
:10179000FE4F8081281711F086E489838C819D811A
:1017A00001969D838C838C819D81853091050CF4FD
:1017B000BCCF898126960FB6F894DEBF0FBECDBF91
:1017C000CF91DF910895DF93CF93CDB7DEB76F97B9
:1017D0000FB6F894DEBF0FBECDBF1F8E1E8E80E603
:1017E00090E00E94930980E090E8ABEBB4E4898F2D
:1017F0009A8FAB8FBC8F698D7A8D8B8D9C8D20E0FD
:1018000030E04AE753E40E941F02DC01CB018D8BDC
:101810009E8BAF8BB88F6D897E898F89988D20E0E4
:1018200030E040E85FE30E94250488232CF481E047
:1018300090E09C8B8B8B3FC06D897E898F89988DC2
:1018400020E03FEF4FE757E40E94C50318164CF520
:10185000698D7A8D8B8D9C8D20E030E040E251E4E3
:101860000E941F02DC01CB01BC01CD010E94490096
:10187000DC01CB019C8B8B8B0FC089E190E09A8BB4
:10188000898B89899A890197F1F79A8B898B8B8942
:101890009C8901979C8B8B8B8B899C89009769F71E
:1018A00035C06D897E898F89988D0E944900DC0141
:1018B000CB019C8B8B8B8B899C89988B8F878F8599
:1018C00098890197F1F7988B8F8720C00E94C606F0
:1018D0008D8F82E090E063E00E94BC098D8D8F3F88
:1018E000A9F08D8D8D3391F08D8D8B3279F08E8DA9
:1018F0009F8DFC01EA5CFE4F8D8D80838AE20E9401
:1019000075098E8D9F8D01969F8F8E8F8E8D9F8DE9
:1019100085309105DCF280E790E00E94930980E039
:1019200090E8ABEBB4E48B879C87AD87BE876B8573
:101930007C858D859E8520E030E04AE753E40E9457
:101940001F02DC01CB018F839887A987BA876F813B
:10195000788589859A8520E030E040E85FE30E9441
:10196000250488232CF481E090E09E838D833FC082
:101970006F81788589859A8520E03FEF4FE757E4AE
:101980000E94C50318164CF56B857C858D859E8558
:1019900020E030E040E251E40E941F02DC01CB0174
:1019A000BC01CD010E944900DC01CB019E838D83E7
:1019B0000FC089E190E09C838B838B819C81019790
:1019C000F1F79C838B838D819E8101979E838D830C
:1019D0008D819E81009769F714C06F817885898514
:1019E0009A850E944900DC01CB019E838D838D8105
:1019F0009E819A83898389819A810197F1F79A83DD
:101A0000898381E00E945E096F960FB6F894DEBF6D
:101A10000FBECDBFCF91DF910895DF93CF93CDB7A8
:101A2000DEB7E0970FB6F894DEBF0FBECDBF88AB30
:101A30001EA61DA680E38CA781E08BA7109236011D
:101A400010923701109238011092390110923A0128
:101A50008FE790E00E94930980E090E8ABEBB4E45C
:101A60008FA398A7A9A7BAA76FA178A589A59AA5BA
:101A700020E030E04AE753E40E941F02DC01CB0182
:101A80008BA39CA3ADA3BEA36BA17CA18DA19EA1A2
:101A900020E030E040E85FE30E94250488232CF436
:101AA00081E090E09AA389A33FC06BA17CA18DA1A6
:101AB0009EA120E03FEF4FE757E40E94C5031816B0
:101AC0004CF56FA178A589A59AA520E030E040E209
:101AD00051E40E941F02DC01CB01BC01CD010E9438
:101AE0004900DC01CB019AA389A30FC089E190E0F2
:101AF00098A38F8F8F8D98A10197F1F798A38F8F5F
:101B000089A19AA101979AA389A389A19AA1009773
:101B100069F714C06BA17CA18DA19EA10E94490010
:101B2000DC01CB019AA389A389A19AA19E8F8D8FF5
:101B30008D8D9E8D0197F1F79E8F8D8F81E00E9494
:101B40005E0980912401909125010E94750980E031
:101B500090E8ABEBB4E4898F9A8FAB8FBC8F698D23
:101B60007A8D8B8D9C8D20E030E04AE753E40E9413
:101B70001F02DC01CB018D8B9E8BAF8BB88F6D89E3
:101B80007E898F89988D20E030E040E85FE30E94F5
:101B9000250488232CF481E090E09C8B8B8B3FC044
:101BA0006D897E898F89988D20E03FEF4FE757E45C
:101BB0000E94C50318164CF5698D7A8D8B8D9C8D0E
:101BC00020E030E040E251E40E941F02DC01CB0142
:101BD000BC01CD010E944900DC01CB019C8B8B8BA9
:101BE0000FC089E190E09A8B898B89899A89019746
:101BF000F1F79A8B898B8B899C8901979C8B8B8BB6
:101C00008B899C89009769F714C06D897E898F89BB
:101C1000988D0E944900DC01CB019C8B8B8B8B89BA
:101C20009C89988B8F878F8598890197F1F7988B7E
:101C30008F8781E00E945E0980E990E00E9493090D
:101C400082E090E063E00E94BC090E94C6068FA774
:101C50008FA58B3271F481E00E945E0981E090E0F3
:101C600060E00E94BC0980EA90E00E94930980E352
:101C70008BA78FA58D3309F0AAC08DA59EA58430B2
:101C800091057CF481E00E945E0981E090E060E0D3
:101C90000E94BC098FEA90E00E94930980E38BA721
:101CA00009C08DA59EA58430910524F088A90E94C5
:101CB000860B8BA78BA5843509F07BC08CEB90E05D
:101CC0000E94930980E090E0A1EEB3E48B879C87AB
:101CD000AD87BE876B857C858D859E8520E030E055
:101CE0004AE753E40E941F02DC01CB018F839887EF
:101CF000A987BA876F81788589859A8520E030E049
:101D000040E85FE30E94250488232CF481E090E002
:101D10009E838D833FC06F81788589859A8520E079
:101D20003FEF4FE757E40E94C50318164CF56B854B
:101D30007C858D859E8520E030E040E251E40E9464
:101D40001F02DC01CB01BC01CD010E944900DC0176
:101D5000CB019E838D830FC089E190E09C838B83B0
:101D60008B819C810197F1F79C838B838D819E8170
:101D700001979E838D838D819E81009769F714C0A2
:101D80006F81788589859A850E944900DC01CB01A5
:101D90009E838D838D819E819A83898389819A8197
:101DA0000197F1F79A83898380E38BA781E38CA75E
:101DB0002AC089EC90E00E949309809124019091BF
:101DC00025010197909325018093240118C08FA5C8
:101DD0008F3FA9F08FA58D3391F08FA58B3279F0CD
:101DE0008DA59EA5FC01EA5CFE4F8FA580838AE24B
:101DF0000E9475098DA59EA501969EA78DA78BA50E
:101E0000813009F422CF8CA5E0960FB6F894DEBF9E
:101E10000FBECDBFCF91DF910895DF93CF93CDB7A4
:101E2000DEB761970FB6F894DEBF0FBECDBF898BCA
:101E3000188A1F8621C08989853569F42F853889DC
:101E40008F859889FC01EA5CFE4F8081F901E15E93
:101E5000FE4F80830CC02F8538898F859889FC01BF
:101E6000EA5CFE4F8081F901E55CFE4F80838F853F
:101E700098890196988B8F878F85988985309105F1
:101E8000D4F281E00E945E098DED90E00E949309FA
:101E900080E090E8ABEBB4E48B879C87AD87BE878E
:101EA0006B857C858D859E8520E030E04AE753E494
:101EB0000E941F02DC01CB018F839887A987BA8714
:101EC0006F81788589859A8520E030E040E85FE37E
:101ED0000E94250488232CF481E090E09E838D836A
:101EE0003FC06F81788589859A8520E03FEF4FE775
:101EF00057E40E94C50318164CF56B857C858D85CB
:101F00009E8520E030E040E251E40E941F02DC01A7
:101F1000CB01BC01CD010E944900DC01CB019E83B5
:101F20008D830FC089E190E09C838B838B819C81A2
:101F30000197F1F79C838B838D819E8101979E830E
:101F40008D838D819E81009769F714C06F8178859C
:101F500089859A850E944900DC01CB019E838D838F
:101F60008D819E819A83898389819A810197F1F776
:101F70009A83898361960FB6F894DEBF0FBECDBFFA
:101F8000CF91DF910895DF93CF93CDB7DEB7AE97B2
:101F90000FB6F894DEBF0FBECDBF85E58EA70E94B9
:101FA0007B0B81E00E945E098EEE90E00E94930917
:101FB00080E090E0AAE7B4E48FA398A7A9A7BAA706
:101FC0006FA178A589A59AA520E030E04AE753E4FF
:101FD0000E941F02DC01CB018BA39CA3ADA3BEA377
:101FE0006BA17CA18DA19EA120E030E040E85FE3E1
:101FF0000E94250488232CF481E090E09AA389A311
:102000003FC06BA17CA18DA19EA120E03FEF4FE7D7
:1020100057E40E94C50318164CF56FA178A589A551
:102020009AA520E030E040E251E40E941F02DC016A
:10203000CB01BC01CD010E944900DC01CB019AA378
:1020400089A30FC089E190E098A38F8F8F8D98A10D
:102050000197F1F798A38F8F89A19AA101979AA36D
:1020600089A389A19AA1009769F714C06BA17CA1EB
:102070008DA19EA10E944900DC01CB019AA389A3F6
:1020800089A19AA19E8F8D8F8D8D9E8D0197F1F7DD
:102090009E8F8D8F81E00E945E098EE48CA78EE476
:1020A0008BA78EA50E940D0D8DA780912401909184
:1020B00025010097B1F78DA5813399F38EA5813461
:1020C00009F077C089EF90E00E94930980E090E6E4
:1020D000AAEEB6E4898F9A8FAB8FBC8F698D7A8D0B
:1020E0008B8D9C8D20E030E04AE753E40E941F0274
:1020F000DC01CB018D8B9E8BAF8BB88F6D897E8978
:102100008F89988D20E030E040E85FE30E9425044D
:1021100088232CF481E090E09C8B8B8B3FC06D89F1
:102120007E898F89988D20E03FEF4FE757E40E942A
:10213000C50318164CF5698D7A8D8B8D9C8D20E02A
:1021400030E040E251E40E941F02DC01CB01BC01FF
:10215000CD010E944900DC01CB019C8B8B8B0FC011
:1021600089E190E09A8B898B89899A890197F1F7A7
:102170009A8B898B8B899C8901979C8B8B8B8B8904
:102180009C89009769F78DCF6D897E898F89988D9D
:102190000E944900DC01CB019C8B8B8B8B899C8935
:1021A000988B8F878F8598890197F1F7988B8F8708
:1021B00078CF81E00E945E0981E091E00E9493095E
:1021C00080E090E0AAE7B4E48B879C87AD87BE8768
:1021D0006B857C858D859E8520E030E04AE753E461
:1021E0000E941F02DC01CB018F839887A987BA87E1
:1021F0006F81788589859A8520E030E040E85FE34B
:102200000E94250488232CF481E090E09E838D8336
:102210003FC06F81788589859A8520E03FEF4FE741
:1022200057E40E94C50318164CF56B857C858D8597
:102230009E8520E030E040E251E40E941F02DC0174
:10224000CB01BC01CD010E944900DC01CB019E8382
:102250008D830FC089E190E09C838B838B819C816F
:102260000197F1F79C838B838D819E8101979E83DB
:102270008D838D819E81009769F714C06F81788569
:1022800089859A850E944900DC01CB019E838D835C
:102290008D819E819A83898389819A810197F1F743
:1022A0009A83898381E00E945E0983E090E09093A5
:1022B00025018093240181E48EA7F3CE2F923F92D3
:1022C0004F925F926F927F928F929F92AF92BF9246
:1022D000CF92DF92EF92FF920F931F93CF93DF93F2
:1022E000CDB7DEB7CA1BDB0B0FB6F894DEBF0FBE4F
:1022F000CDBF09942A88398848885F846E847D849C
:102300008C849B84AA84B984C884DF80EE80FD809D
:102310000C811B81AA81B981CE0FD11D0FB6F89413
:0E232000DEBF0FBECDBFED010895F894FFCFD4
:10232E004368616E67652050617373776F726400E6
:10233E0050617373776F72642053617665640054D5
:10234E007269616C732072656D61696E696E67008A
:10235E00456E7465722050617373776F72643A00C4
:10236E00506C656173652C2052657065617400490F
:10237E006E636F72726563742E2E210057656C63E7
:10238E006F6D6520426F737300496E636F72726575
:10239E0063742C54727920616761696E00506173A9
:1023AE0073776F7264206368616E6765640057654A
:1023BE006C636F6D652E2E2E004675636B796F758F
:1023CE0000456E7465722041646D696E20506173B4
:1023DE0073776F72643A0000000000000000003155
:1023EE003233343503003738392F3435362A31320B
:0623FE00332D43303D2B9E
:00000001FF
