:100000000C942A000C9434000C9434000C943400AA
:100010000C9434000C9434000C9434000C94340090
:100020000C9434000C9434000C9434000C94340080
:100030000C9434000C9434000C9434000C94340070
:100040000C9434000C9434000C9434000C94340060
:100050000C94340011241FBECFE5D4E0DEBFCDBF29
:100060000E94C8000C94E6000C940000DF93CF932C
:10007000CDB7DEB7A1E3B0E0E1E3F0E080818C939F
:10008000A1E3B0E0E1E3F0E0808180618C93A1E343
:10009000B0E0E1E3F0E0808188608C93A2E3B0E01F
:1000A000E2E3F0E080818F7E8C93A2E3B0E0E2E3B4
:1000B000F0E08081877F8C930E949200CF91DF9146
:1000C0000895DF93CF93CDB7DEB7E0E3F0E0808112
:1000D000882F90E081709070882341F0A2E3B0E017
:1000E000E2E3F0E0808180618C9307C0A2E3B0E09E
:1000F000E2E3F0E080818F7E8C93CF91DF910895D1
:10010000DF93CF9300D0CDB7DEB71A8219820E9459
:10011000B2009A83898389819A810F900F90CF9141
:10012000DF910895DF93CF93CDB7DEB7A7E2B0E0BC
:10013000E7E2F0E0808180748C93E6E2F0E087E80B
:100140008083CF91DF910895DF93CF93CDB7DEB752
:10015000A6E2B0E0E6E2F0E0808180648C93CF918B
:10016000DF910895DF93CF93CDB7DEB70E94A4004F
:10017000E6E2F0E08081882F90E080749070009734
:10018000B9F7E4E2F0E080819181CF91DF910895A9
:10019000DF93CF93CDB7DEB70E9436000E94610097
:1001A0000E94800021E0843F920740F0A2E3B0E08B
:1001B000E2E3F0E0808188608C93F0CFA2E3B0E0CE
:1001C000E2E3F0E0808188708C93E8CFF894FFCF71
:00000001FF
