S00E00004B65797061642E73726563B8
S113000012C024C023C022C021C020C01FC01EC0F3
S11300101DC01CC01BC01AC019C018C017C016C010
S113002015C014C013C011241FBECFE5D4E0DEBF39
S1130030CDBF10E0A0E6B0E0E4EFF0E002C0059030
S11300400D92A037B107D9F750D052C0D9CF889AB2
S1130050899A8A9A8B9A8C988D988E988F98949A6C
S1130060959A969A979A909A919A929A939A0895B1
S113007080E0909A919A929A939A813041F028F074
S1130080823039F0833039F007C0909805C09198D8
S113009003C0929801C09398849B15C0859B15C09A
S11300A0869B15C0879B15C009C0849BFECF859B8A
S11300B0FCCF869BFACF879BF8CF0DC08F5F84302F
S11300C0C1F68FEF0895E0E0F0CFE1E0EECFE2E09B
S11300D0ECCFE3E0EACFF0E094E0899FE00DF11D7E
S11300E01124E05AFF4F80810895B1DFC1DFFECFB4
S10700F0F894FFCFAE
S11300F43738392F3435362A3132332D43303D2BBA
S9030000FC
